{
  "_format": "hh-sol-artifact-1",
  "contractName": "TokenizedBallot",
  "sourceName": "contracts/TokenizedBallot.sol",
  "abi": [
    {
      "inputs": [
        {
          "internalType": "bytes32[]",
          "name": "proposalNames",
          "type": "bytes32[]"
        },
        {
          "internalType": "address",
          "name": "_tokenContract",
          "type": "address"
        },
        {
          "internalType": "uint256",
          "name": "_targetBlockNumber",
          "type": "uint256"
        }
      ],
      "stateMutability": "nonpayable",
      "type": "constructor"
    },
    {
      "anonymous": false,
      "inputs": [
        {
          "indexed": true,
          "internalType": "address",
          "name": "previousOwner",
          "type": "address"
        },
        {
          "indexed": true,
          "internalType": "address",
          "name": "newOwner",
          "type": "address"
        }
      ],
      "name": "OwnershipTransferred",
      "type": "event"
    },
    {
      "inputs": [
        {
          "internalType": "address",
          "name": "to",
          "type": "address"
        },
        {
          "internalType": "uint256",
          "name": "amount",
          "type": "uint256"
        }
      ],
      "name": "giveVotes",
      "outputs": [],
      "stateMutability": "nonpayable",
      "type": "function"
    },
    {
      "inputs": [],
      "name": "owner",
      "outputs": [
        {
          "internalType": "address",
          "name": "",
          "type": "address"
        }
      ],
      "stateMutability": "view",
      "type": "function"
    },
    {
      "inputs": [
        {
          "internalType": "uint256",
          "name": "",
          "type": "uint256"
        }
      ],
      "name": "proposals",
      "outputs": [
        {
          "internalType": "bytes32",
          "name": "name",
          "type": "bytes32"
        },
        {
          "internalType": "uint256",
          "name": "voteCount",
          "type": "uint256"
        }
      ],
      "stateMutability": "view",
      "type": "function"
    },
    {
      "inputs": [],
      "name": "renounceOwnership",
      "outputs": [],
      "stateMutability": "nonpayable",
      "type": "function"
    },
    {
      "inputs": [
        {
          "internalType": "uint256",
          "name": "_targetBlockNumber",
          "type": "uint256"
        }
      ],
      "name": "setTargetBlockNumber",
      "outputs": [],
      "stateMutability": "nonpayable",
      "type": "function"
    },
    {
      "inputs": [],
      "name": "targetBlockNumber",
      "outputs": [
        {
          "internalType": "uint256",
          "name": "",
          "type": "uint256"
        }
      ],
      "stateMutability": "view",
      "type": "function"
    },
    {
      "inputs": [],
      "name": "tokenContract",
      "outputs": [
        {
          "internalType": "contract IMyToken",
          "name": "",
          "type": "address"
        }
      ],
      "stateMutability": "view",
      "type": "function"
    },
    {
      "inputs": [
        {
          "internalType": "address",
          "name": "newOwner",
          "type": "address"
        }
      ],
      "name": "transferOwnership",
      "outputs": [],
      "stateMutability": "nonpayable",
      "type": "function"
    },
    {
      "inputs": [
        {
          "internalType": "uint256",
          "name": "proposal",
          "type": "uint256"
        },
        {
          "internalType": "uint256",
          "name": "amount",
          "type": "uint256"
        }
      ],
      "name": "vote",
      "outputs": [],
      "stateMutability": "nonpayable",
      "type": "function"
    },
    {
      "inputs": [
        {
          "internalType": "address",
          "name": "account",
          "type": "address"
        }
      ],
      "name": "votingPower",
      "outputs": [
        {
          "internalType": "uint256",
          "name": "",
          "type": "uint256"
        }
      ],
      "stateMutability": "view",
      "type": "function"
    },
    {
      "inputs": [
        {
          "internalType": "address",
          "name": "",
          "type": "address"
        }
      ],
      "name": "votingPowerSpent",
      "outputs": [
        {
          "internalType": "uint256",
          "name": "",
          "type": "uint256"
        }
      ],
      "stateMutability": "view",
      "type": "function"
    },
    {
      "inputs": [],
      "name": "winnerName",
      "outputs": [
        {
          "internalType": "bytes32",
          "name": "winnerName_",
          "type": "bytes32"
        }
      ],
      "stateMutability": "view",
      "type": "function"
    },
    {
      "inputs": [],
      "name": "winningProposal",
      "outputs": [
        {
          "internalType": "uint256",
          "name": "winningProposal_",
          "type": "uint256"
        }
      ],
      "stateMutability": "view",
      "type": "function"
    }
  ],
  "bytecode": "0x60806040523480156200001157600080fd5b506040516200128338038062001283833981810160405281019062000037919062000470565b620000576200004b6200014060201b60201c565b6200014860201b60201c565b81600360006101000a81548173ffffffffffffffffffffffffffffffffffffffff021916908373ffffffffffffffffffffffffffffffffffffffff1602179055508060028190555060005b8351811015620001365760046040518060400160405280868481518110620000cf57620000ce620004eb565b5b60200260200101518152602001600081525090806001815401808255809150506001900390600052602060002090600202016000909190919091506000820151816000015560208201518160010155505080806200012d9062000549565b915050620000a2565b5050505062000596565b600033905090565b60008060009054906101000a900473ffffffffffffffffffffffffffffffffffffffff169050816000806101000a81548173ffffffffffffffffffffffffffffffffffffffff021916908373ffffffffffffffffffffffffffffffffffffffff1602179055508173ffffffffffffffffffffffffffffffffffffffff168173ffffffffffffffffffffffffffffffffffffffff167f8be0079c531659141344cd1fd0a4f28419497f9722a3daafe3b4186f6b6457e060405160405180910390a35050565b6000604051905090565b600080fd5b600080fd5b600080fd5b6000601f19601f8301169050919050565b7f4e487b7100000000000000000000000000000000000000000000000000000000600052604160045260246000fd5b620002708262000225565b810181811067ffffffffffffffff8211171562000292576200029162000236565b5b80604052505050565b6000620002a76200020c565b9050620002b5828262000265565b919050565b600067ffffffffffffffff821115620002d857620002d762000236565b5b602082029050602081019050919050565b600080fd5b6000819050919050565b6200030381620002ee565b81146200030f57600080fd5b50565b6000815190506200032381620002f8565b92915050565b6000620003406200033a84620002ba565b6200029b565b90508083825260208201905060208402830185811115620003665762000365620002e9565b5b835b818110156200039357806200037e888262000312565b84526020840193505060208101905062000368565b5050509392505050565b600082601f830112620003b557620003b462000220565b5b8151620003c784826020860162000329565b91505092915050565b600073ffffffffffffffffffffffffffffffffffffffff82169050919050565b6000620003fd82620003d0565b9050919050565b6200040f81620003f0565b81146200041b57600080fd5b50565b6000815190506200042f8162000404565b92915050565b6000819050919050565b6200044a8162000435565b81146200045657600080fd5b50565b6000815190506200046a816200043f565b92915050565b6000806000606084860312156200048c576200048b62000216565b5b600084015167ffffffffffffffff811115620004ad57620004ac6200021b565b5b620004bb868287016200039d565b9350506020620004ce868287016200041e565b9250506040620004e18682870162000459565b9150509250925092565b7f4e487b7100000000000000000000000000000000000000000000000000000000600052603260045260246000fd5b7f4e487b7100000000000000000000000000000000000000000000000000000000600052601160045260246000fd5b6000620005568262000435565b91507fffffffffffffffffffffffffffffffffffffffffffffffffffffffffffffffff82036200058b576200058a6200051a565b5b600182019050919050565b610cdd80620005a66000396000f3fe608060405234801561001057600080fd5b50600436106100cf5760003560e01c8063715018a61161008c578063b384abef11610066578063b384abef146101ef578063c07473f61461020b578063e2ba53f01461023b578063f2fde38b14610259576100cf565b8063715018a6146101975780638da5cb5b146101a1578063a7200351146101bf576100cf565b8063013cf08b146100d45780632017eaf0146101055780632a8cd29e1461012157806332da83e81461013f57806355a373d61461015b578063609ff1bd14610179575b600080fd5b6100ee60048036038101906100e99190610804565b610275565b6040516100fc929190610859565b60405180910390f35b61011f600480360381019061011a91906108e0565b6102a9565b005b61012961033c565b6040516101369190610920565b60405180910390f35b61015960048036038101906101549190610804565b610342565b005b61016361034c565b604051610170919061099a565b60405180910390f35b610181610372565b60405161018e9190610920565b60405180910390f35b61019f6103d5565b005b6101a96103e9565b6040516101b691906109c4565b60405180910390f35b6101d960048036038101906101d491906109df565b610412565b6040516101e69190610920565b60405180910390f35b61020960048036038101906102049190610a0c565b61042a565b005b610225600480360381019061022091906109df565b6104d5565b6040516102329190610920565b60405180910390f35b6102436105c8565b6040516102509190610a4c565b60405180910390f35b610273600480360381019061026e91906109df565b6105fc565b005b6004818154811061028557600080fd5b90600052602060002090600202016000915090508060000154908060010154905082565b600360009054906101000a900473ffffffffffffffffffffffffffffffffffffffff1673ffffffffffffffffffffffffffffffffffffffff166340c10f1983836040518363ffffffff1660e01b8152600401610306929190610a67565b600060405180830381600087803b15801561032057600080fd5b505af1158015610334573d6000803e3d6000fd5b505050505050565b60025481565b8060028190555050565b600360009054906101000a900473ffffffffffffffffffffffffffffffffffffffff1681565b6000806000905060005b6004805490508110156103d05760006004828154811061039f5761039e610a90565b5b9060005260206000209060020201600101549050828111156103c2578092508193505b81806001019250505061037c565b505090565b6103dd61067f565b6103e760006106fd565b565b60008060009054906101000a900473ffffffffffffffffffffffffffffffffffffffff16905090565b60016020528060005260406000206000915090505481565b80610434336104d5565b101561043f57600080fd5b80600160003373ffffffffffffffffffffffffffffffffffffffff1673ffffffffffffffffffffffffffffffffffffffff168152602001908152602001600020600082825461048e9190610aee565b9250508190555080600483815481106104aa576104a9610a90565b5b906000526020600020906002020160010160008282546104ca9190610aee565b925050819055505050565b6000600160008373ffffffffffffffffffffffffffffffffffffffff1673ffffffffffffffffffffffffffffffffffffffff16815260200190815260200160002054600360009054906101000a900473ffffffffffffffffffffffffffffffffffffffff1673ffffffffffffffffffffffffffffffffffffffff16633a46b1a8846002546040518363ffffffff1660e01b8152600401610576929190610a67565b602060405180830381865afa158015610593573d6000803e3d6000fd5b505050506040513d601f19601f820116820180604052508101906105b79190610b37565b6105c19190610b64565b9050919050565b600060046105d4610372565b815481106105e5576105e4610a90565b5b906000526020600020906002020160000154905090565b61060461067f565b600073ffffffffffffffffffffffffffffffffffffffff168173ffffffffffffffffffffffffffffffffffffffff1603610673576040517f08c379a000000000000000000000000000000000000000000000000000000000815260040161066a90610c1b565b60405180910390fd5b61067c816106fd565b50565b6106876107c1565b73ffffffffffffffffffffffffffffffffffffffff166106a56103e9565b73ffffffffffffffffffffffffffffffffffffffff16146106fb576040517f08c379a00000000000000000000000000000000000000000000000000000000081526004016106f290610c87565b60405180910390fd5b565b60008060009054906101000a900473ffffffffffffffffffffffffffffffffffffffff169050816000806101000a81548173ffffffffffffffffffffffffffffffffffffffff021916908373ffffffffffffffffffffffffffffffffffffffff1602179055508173ffffffffffffffffffffffffffffffffffffffff168173ffffffffffffffffffffffffffffffffffffffff167f8be0079c531659141344cd1fd0a4f28419497f9722a3daafe3b4186f6b6457e060405160405180910390a35050565b600033905090565b600080fd5b6000819050919050565b6107e1816107ce565b81146107ec57600080fd5b50565b6000813590506107fe816107d8565b92915050565b60006020828403121561081a576108196107c9565b5b6000610828848285016107ef565b91505092915050565b6000819050919050565b61084481610831565b82525050565b610853816107ce565b82525050565b600060408201905061086e600083018561083b565b61087b602083018461084a565b9392505050565b600073ffffffffffffffffffffffffffffffffffffffff82169050919050565b60006108ad82610882565b9050919050565b6108bd816108a2565b81146108c857600080fd5b50565b6000813590506108da816108b4565b92915050565b600080604083850312156108f7576108f66107c9565b5b6000610905858286016108cb565b9250506020610916858286016107ef565b9150509250929050565b6000602082019050610935600083018461084a565b92915050565b6000819050919050565b600061096061095b61095684610882565b61093b565b610882565b9050919050565b600061097282610945565b9050919050565b600061098482610967565b9050919050565b61099481610979565b82525050565b60006020820190506109af600083018461098b565b92915050565b6109be816108a2565b82525050565b60006020820190506109d960008301846109b5565b92915050565b6000602082840312156109f5576109f46107c9565b5b6000610a03848285016108cb565b91505092915050565b60008060408385031215610a2357610a226107c9565b5b6000610a31858286016107ef565b9250506020610a42858286016107ef565b9150509250929050565b6000602082019050610a61600083018461083b565b92915050565b6000604082019050610a7c60008301856109b5565b610a89602083018461084a565b9392505050565b7f4e487b7100000000000000000000000000000000000000000000000000000000600052603260045260246000fd5b7f4e487b7100000000000000000000000000000000000000000000000000000000600052601160045260246000fd5b6000610af9826107ce565b9150610b04836107ce565b9250828201905080821115610b1c57610b1b610abf565b5b92915050565b600081519050610b31816107d8565b92915050565b600060208284031215610b4d57610b4c6107c9565b5b6000610b5b84828501610b22565b91505092915050565b6000610b6f826107ce565b9150610b7a836107ce565b9250828203905081811115610b9257610b91610abf565b5b92915050565b600082825260208201905092915050565b7f4f776e61626c653a206e6577206f776e657220697320746865207a65726f206160008201527f6464726573730000000000000000000000000000000000000000000000000000602082015250565b6000610c05602683610b98565b9150610c1082610ba9565b604082019050919050565b60006020820190508181036000830152610c3481610bf8565b9050919050565b7f4f776e61626c653a2063616c6c6572206973206e6f7420746865206f776e6572600082015250565b6000610c71602083610b98565b9150610c7c82610c3b565b602082019050919050565b60006020820190508181036000830152610ca081610c64565b905091905056fea2646970667358221220ecbaf940185cbf1e3422b841ed2f8a17f8c63d28673ea75914eea0893d81ab7164736f6c63430008110033",
  "linkReferences": {},
  "deployedLinkReferences": {}
}