{
  "_format": "hh-sol-artifact-1",
  "contractName": "Ballot",
  "sourceName": "contracts/TokenizedBallot.sol",
  "abi": [
    {
      "inputs": [
        {
          "internalType": "bytes32[]",
          "name": "proposalNames",
          "type": "bytes32[]"
        },
        {
          "internalType": "address",
          "name": "tokenAddress",
          "type": "address"
        },
        {
          "internalType": "uint256",
          "name": "_targetBlocknumber",
          "type": "uint256"
        }
      ],
      "stateMutability": "nonpayable",
      "type": "constructor"
    },
    {
      "inputs": [
        {
          "internalType": "uint256",
          "name": "",
          "type": "uint256"
        }
      ],
      "name": "proposals",
      "outputs": [
        {
          "internalType": "bytes32",
          "name": "name",
          "type": "bytes32"
        },
        {
          "internalType": "uint256",
          "name": "voteCount",
          "type": "uint256"
        }
      ],
      "stateMutability": "view",
      "type": "function"
    },
    {
      "inputs": [],
      "name": "tokenContract",
      "outputs": [
        {
          "internalType": "contract IMyToken",
          "name": "",
          "type": "address"
        }
      ],
      "stateMutability": "view",
      "type": "function"
    },
    {
      "inputs": [
        {
          "internalType": "uint256",
          "name": "proposal",
          "type": "uint256"
        },
        {
          "internalType": "uint256",
          "name": "amount",
          "type": "uint256"
        }
      ],
      "name": "vote",
      "outputs": [],
      "stateMutability": "nonpayable",
      "type": "function"
    },
    {
      "inputs": [
        {
          "internalType": "address",
          "name": "account",
          "type": "address"
        }
      ],
      "name": "votingPower",
      "outputs": [
        {
          "internalType": "uint256",
          "name": "",
          "type": "uint256"
        }
      ],
      "stateMutability": "view",
      "type": "function"
    },
    {
      "inputs": [
        {
          "internalType": "address",
          "name": "",
          "type": "address"
        }
      ],
      "name": "votingPowerSpent",
      "outputs": [
        {
          "internalType": "uint256",
          "name": "",
          "type": "uint256"
        }
      ],
      "stateMutability": "view",
      "type": "function"
    },
    {
      "inputs": [],
      "name": "winnerName",
      "outputs": [
        {
          "internalType": "bytes32",
          "name": "winnerName_",
          "type": "bytes32"
        }
      ],
      "stateMutability": "view",
      "type": "function"
    },
    {
      "inputs": [],
      "name": "winningProposal",
      "outputs": [
        {
          "internalType": "uint256",
          "name": "winningProposal_",
          "type": "uint256"
        }
      ],
      "stateMutability": "view",
      "type": "function"
    }
  ],
  "bytecode": "0x60806040523480156200001157600080fd5b5060405162000d0238038062000d02833981810160405281019062000037919062000383565b816000806101000a81548173ffffffffffffffffffffffffffffffffffffffff021916908373ffffffffffffffffffffffffffffffffffffffff1602179055508060028190555060005b8351811015620001155760016040518060400160405280868481518110620000ae57620000ad620003fe565b5b60200260200101518152602001600081525090806001815401808255809150506001900390600052602060002090600202016000909190919091506000820151816000015560208201518160010155505080806200010c906200045c565b91505062000081565b50505050620004a9565b6000604051905090565b600080fd5b600080fd5b600080fd5b6000601f19601f8301169050919050565b7f4e487b7100000000000000000000000000000000000000000000000000000000600052604160045260246000fd5b620001838262000138565b810181811067ffffffffffffffff82111715620001a557620001a462000149565b5b80604052505050565b6000620001ba6200011f565b9050620001c8828262000178565b919050565b600067ffffffffffffffff821115620001eb57620001ea62000149565b5b602082029050602081019050919050565b600080fd5b6000819050919050565b620002168162000201565b81146200022257600080fd5b50565b60008151905062000236816200020b565b92915050565b6000620002536200024d84620001cd565b620001ae565b90508083825260208201905060208402830185811115620002795762000278620001fc565b5b835b81811015620002a6578062000291888262000225565b8452602084019350506020810190506200027b565b5050509392505050565b600082601f830112620002c857620002c762000133565b5b8151620002da8482602086016200023c565b91505092915050565b600073ffffffffffffffffffffffffffffffffffffffff82169050919050565b60006200031082620002e3565b9050919050565b620003228162000303565b81146200032e57600080fd5b50565b600081519050620003428162000317565b92915050565b6000819050919050565b6200035d8162000348565b81146200036957600080fd5b50565b6000815190506200037d8162000352565b92915050565b6000806000606084860312156200039f576200039e62000129565b5b600084015167ffffffffffffffff811115620003c057620003bf6200012e565b5b620003ce86828701620002b0565b9350506020620003e18682870162000331565b9250506040620003f4868287016200036c565b9150509250925092565b7f4e487b7100000000000000000000000000000000000000000000000000000000600052603260045260246000fd5b7f4e487b7100000000000000000000000000000000000000000000000000000000600052601160045260246000fd5b6000620004698262000348565b91507fffffffffffffffffffffffffffffffffffffffffffffffffffffffffffffffff82036200049e576200049d6200042d565b5b600182019050919050565b61084980620004b96000396000f3fe608060405234801561001057600080fd5b506004361061007d5760003560e01c8063a72003511161005b578063a7200351146100ef578063b384abef1461011f578063c07473f61461013b578063e2ba53f01461016b5761007d565b8063013cf08b1461008257806355a373d6146100b3578063609ff1bd146100d1575b600080fd5b61009c60048036038101906100979190610492565b610189565b6040516100aa9291906104e7565b60405180910390f35b6100bb6101bd565b6040516100c8919061058f565b60405180910390f35b6100d96101e1565b6040516100e691906105aa565b60405180910390f35b61010960048036038101906101049190610603565b610269565b60405161011691906105aa565b60405180910390f35b61013960048036038101906101349190610630565b610281565b005b61015560048036038101906101509190610603565b610332565b60405161016291906105aa565b60405180910390f35b610173610423565b6040516101809190610670565b60405180910390f35b6001818154811061019957600080fd5b90600052602060002090600202016000915090508060000154908060010154905082565b60008054906101000a900473ffffffffffffffffffffffffffffffffffffffff1681565b6000806000905060005b60018054905081101561026457816001828154811061020d5761020c61068b565b5b906000526020600020906002020160010154111561025157600181815481106102395761023861068b565b5b90600052602060002090600202016001015491508092505b808061025c906106e9565b9150506101eb565b505090565b60036020528060005260406000206000915090505481565b600061028c33610332565b90508181101561029b57600080fd5b81600184815481106102b0576102af61068b565b5b906000526020600020906002020160010160008282546102d09190610731565b9250508190555081600360003373ffffffffffffffffffffffffffffffffffffffff1673ffffffffffffffffffffffffffffffffffffffff16815260200190815260200160002060008282546103269190610731565b92505081905550505050565b6000600360003373ffffffffffffffffffffffffffffffffffffffff1673ffffffffffffffffffffffffffffffffffffffff1681526020019081526020016000205460008054906101000a900473ffffffffffffffffffffffffffffffffffffffff1673ffffffffffffffffffffffffffffffffffffffff16633a46b1a8846002546040518363ffffffff1660e01b81526004016103d1929190610774565b602060405180830381865afa1580156103ee573d6000803e3d6000fd5b505050506040513d601f19601f8201168201806040525081019061041291906107b2565b61041c91906107df565b9050919050565b6000600161042f6101e1565b815481106104405761043f61068b565b5b906000526020600020906002020160000154905090565b600080fd5b6000819050919050565b61046f8161045c565b811461047a57600080fd5b50565b60008135905061048c81610466565b92915050565b6000602082840312156104a8576104a7610457565b5b60006104b68482850161047d565b91505092915050565b6000819050919050565b6104d2816104bf565b82525050565b6104e18161045c565b82525050565b60006040820190506104fc60008301856104c9565b61050960208301846104d8565b9392505050565b600073ffffffffffffffffffffffffffffffffffffffff82169050919050565b6000819050919050565b600061055561055061054b84610510565b610530565b610510565b9050919050565b60006105678261053a565b9050919050565b60006105798261055c565b9050919050565b6105898161056e565b82525050565b60006020820190506105a46000830184610580565b92915050565b60006020820190506105bf60008301846104d8565b92915050565b60006105d082610510565b9050919050565b6105e0816105c5565b81146105eb57600080fd5b50565b6000813590506105fd816105d7565b92915050565b60006020828403121561061957610618610457565b5b6000610627848285016105ee565b91505092915050565b6000806040838503121561064757610646610457565b5b60006106558582860161047d565b92505060206106668582860161047d565b9150509250929050565b600060208201905061068560008301846104c9565b92915050565b7f4e487b7100000000000000000000000000000000000000000000000000000000600052603260045260246000fd5b7f4e487b7100000000000000000000000000000000000000000000000000000000600052601160045260246000fd5b60006106f48261045c565b91507fffffffffffffffffffffffffffffffffffffffffffffffffffffffffffffffff8203610726576107256106ba565b5b600182019050919050565b600061073c8261045c565b91506107478361045c565b925082820190508082111561075f5761075e6106ba565b5b92915050565b61076e816105c5565b82525050565b60006040820190506107896000830185610765565b61079660208301846104d8565b9392505050565b6000815190506107ac81610466565b92915050565b6000602082840312156107c8576107c7610457565b5b60006107d68482850161079d565b91505092915050565b60006107ea8261045c565b91506107f58361045c565b925082820390508181111561080d5761080c6106ba565b5b9291505056fea2646970667358221220d21eb1c6e54c03c5a43cd82a5850a3faec74e090fc97083963205f15c98345c464736f6c63430008110033",
  "linkReferences": {},
  "deployedLinkReferences": {}
}