{
  "_format": "hh-sol-artifact-1",
  "contractName": "MyToken",
  "sourceName": "contracts/ERC20Votes.sol",
  "abi": [
    {
      "inputs": [],
      "stateMutability": "nonpayable",
      "type": "constructor"
    },
    {
      "anonymous": false,
      "inputs": [
        {
          "indexed": true,
          "internalType": "address",
          "name": "owner",
          "type": "address"
        },
        {
          "indexed": true,
          "internalType": "address",
          "name": "spender",
          "type": "address"
        },
        {
          "indexed": false,
          "internalType": "uint256",
          "name": "value",
          "type": "uint256"
        }
      ],
      "name": "Approval",
      "type": "event"
    },
    {
      "anonymous": false,
      "inputs": [
        {
          "indexed": true,
          "internalType": "address",
          "name": "delegator",
          "type": "address"
        },
        {
          "indexed": true,
          "internalType": "address",
          "name": "fromDelegate",
          "type": "address"
        },
        {
          "indexed": true,
          "internalType": "address",
          "name": "toDelegate",
          "type": "address"
        }
      ],
      "name": "DelegateChanged",
      "type": "event"
    },
    {
      "anonymous": false,
      "inputs": [
        {
          "indexed": true,
          "internalType": "address",
          "name": "delegate",
          "type": "address"
        },
        {
          "indexed": false,
          "internalType": "uint256",
          "name": "previousBalance",
          "type": "uint256"
        },
        {
          "indexed": false,
          "internalType": "uint256",
          "name": "newBalance",
          "type": "uint256"
        }
      ],
      "name": "DelegateVotesChanged",
      "type": "event"
    },
    {
      "anonymous": false,
      "inputs": [
        {
          "indexed": true,
          "internalType": "bytes32",
          "name": "role",
          "type": "bytes32"
        },
        {
          "indexed": true,
          "internalType": "bytes32",
          "name": "previousAdminRole",
          "type": "bytes32"
        },
        {
          "indexed": true,
          "internalType": "bytes32",
          "name": "newAdminRole",
          "type": "bytes32"
        }
      ],
      "name": "RoleAdminChanged",
      "type": "event"
    },
    {
      "anonymous": false,
      "inputs": [
        {
          "indexed": true,
          "internalType": "bytes32",
          "name": "role",
          "type": "bytes32"
        },
        {
          "indexed": true,
          "internalType": "address",
          "name": "account",
          "type": "address"
        },
        {
          "indexed": true,
          "internalType": "address",
          "name": "sender",
          "type": "address"
        }
      ],
      "name": "RoleGranted",
      "type": "event"
    },
    {
      "anonymous": false,
      "inputs": [
        {
          "indexed": true,
          "internalType": "bytes32",
          "name": "role",
          "type": "bytes32"
        },
        {
          "indexed": true,
          "internalType": "address",
          "name": "account",
          "type": "address"
        },
        {
          "indexed": true,
          "internalType": "address",
          "name": "sender",
          "type": "address"
        }
      ],
      "name": "RoleRevoked",
      "type": "event"
    },
    {
      "anonymous": false,
      "inputs": [
        {
          "indexed": true,
          "internalType": "address",
          "name": "from",
          "type": "address"
        },
        {
          "indexed": true,
          "internalType": "address",
          "name": "to",
          "type": "address"
        },
        {
          "indexed": false,
          "internalType": "uint256",
          "name": "value",
          "type": "uint256"
        }
      ],
      "name": "Transfer",
      "type": "event"
    },
    {
      "inputs": [],
      "name": "DEFAULT_ADMIN_ROLE",
      "outputs": [
        {
          "internalType": "bytes32",
          "name": "",
          "type": "bytes32"
        }
      ],
      "stateMutability": "view",
      "type": "function"
    },
    {
      "inputs": [],
      "name": "DOMAIN_SEPARATOR",
      "outputs": [
        {
          "internalType": "bytes32",
          "name": "",
          "type": "bytes32"
        }
      ],
      "stateMutability": "view",
      "type": "function"
    },
    {
      "inputs": [],
      "name": "MINTER_ROLE",
      "outputs": [
        {
          "internalType": "bytes32",
          "name": "",
          "type": "bytes32"
        }
      ],
      "stateMutability": "view",
      "type": "function"
    },
    {
      "inputs": [
        {
          "internalType": "address",
          "name": "owner",
          "type": "address"
        },
        {
          "internalType": "address",
          "name": "spender",
          "type": "address"
        }
      ],
      "name": "allowance",
      "outputs": [
        {
          "internalType": "uint256",
          "name": "",
          "type": "uint256"
        }
      ],
      "stateMutability": "view",
      "type": "function"
    },
    {
      "inputs": [
        {
          "internalType": "address",
          "name": "spender",
          "type": "address"
        },
        {
          "internalType": "uint256",
          "name": "amount",
          "type": "uint256"
        }
      ],
      "name": "approve",
      "outputs": [
        {
          "internalType": "bool",
          "name": "",
          "type": "bool"
        }
      ],
      "stateMutability": "nonpayable",
      "type": "function"
    },
    {
      "inputs": [
        {
          "internalType": "address",
          "name": "account",
          "type": "address"
        }
      ],
      "name": "balanceOf",
      "outputs": [
        {
          "internalType": "uint256",
          "name": "",
          "type": "uint256"
        }
      ],
      "stateMutability": "view",
      "type": "function"
    },
    {
      "inputs": [
        {
          "internalType": "address",
          "name": "account",
          "type": "address"
        },
        {
          "internalType": "uint32",
          "name": "pos",
          "type": "uint32"
        }
      ],
      "name": "checkpoints",
      "outputs": [
        {
          "components": [
            {
              "internalType": "uint32",
              "name": "fromBlock",
              "type": "uint32"
            },
            {
              "internalType": "uint224",
              "name": "votes",
              "type": "uint224"
            }
          ],
          "internalType": "struct ERC20Votes.Checkpoint",
          "name": "",
          "type": "tuple"
        }
      ],
      "stateMutability": "view",
      "type": "function"
    },
    {
      "inputs": [],
      "name": "decimals",
      "outputs": [
        {
          "internalType": "uint8",
          "name": "",
          "type": "uint8"
        }
      ],
      "stateMutability": "view",
      "type": "function"
    },
    {
      "inputs": [
        {
          "internalType": "address",
          "name": "spender",
          "type": "address"
        },
        {
          "internalType": "uint256",
          "name": "subtractedValue",
          "type": "uint256"
        }
      ],
      "name": "decreaseAllowance",
      "outputs": [
        {
          "internalType": "bool",
          "name": "",
          "type": "bool"
        }
      ],
      "stateMutability": "nonpayable",
      "type": "function"
    },
    {
      "inputs": [
        {
          "internalType": "address",
          "name": "delegatee",
          "type": "address"
        }
      ],
      "name": "delegate",
      "outputs": [],
      "stateMutability": "nonpayable",
      "type": "function"
    },
    {
      "inputs": [
        {
          "internalType": "address",
          "name": "delegatee",
          "type": "address"
        },
        {
          "internalType": "uint256",
          "name": "nonce",
          "type": "uint256"
        },
        {
          "internalType": "uint256",
          "name": "expiry",
          "type": "uint256"
        },
        {
          "internalType": "uint8",
          "name": "v",
          "type": "uint8"
        },
        {
          "internalType": "bytes32",
          "name": "r",
          "type": "bytes32"
        },
        {
          "internalType": "bytes32",
          "name": "s",
          "type": "bytes32"
        }
      ],
      "name": "delegateBySig",
      "outputs": [],
      "stateMutability": "nonpayable",
      "type": "function"
    },
    {
      "inputs": [
        {
          "internalType": "address",
          "name": "account",
          "type": "address"
        }
      ],
      "name": "delegates",
      "outputs": [
        {
          "internalType": "address",
          "name": "",
          "type": "address"
        }
      ],
      "stateMutability": "view",
      "type": "function"
    },
    {
      "inputs": [
        {
          "internalType": "uint256",
          "name": "blockNumber",
          "type": "uint256"
        }
      ],
      "name": "getPastTotalSupply",
      "outputs": [
        {
          "internalType": "uint256",
          "name": "",
          "type": "uint256"
        }
      ],
      "stateMutability": "view",
      "type": "function"
    },
    {
      "inputs": [
        {
          "internalType": "address",
          "name": "account",
          "type": "address"
        },
        {
          "internalType": "uint256",
          "name": "blockNumber",
          "type": "uint256"
        }
      ],
      "name": "getPastVotes",
      "outputs": [
        {
          "internalType": "uint256",
          "name": "",
          "type": "uint256"
        }
      ],
      "stateMutability": "view",
      "type": "function"
    },
    {
      "inputs": [
        {
          "internalType": "bytes32",
          "name": "role",
          "type": "bytes32"
        }
      ],
      "name": "getRoleAdmin",
      "outputs": [
        {
          "internalType": "bytes32",
          "name": "",
          "type": "bytes32"
        }
      ],
      "stateMutability": "view",
      "type": "function"
    },
    {
      "inputs": [
        {
          "internalType": "address",
          "name": "account",
          "type": "address"
        }
      ],
      "name": "getVotes",
      "outputs": [
        {
          "internalType": "uint256",
          "name": "",
          "type": "uint256"
        }
      ],
      "stateMutability": "view",
      "type": "function"
    },
    {
      "inputs": [
        {
          "internalType": "bytes32",
          "name": "role",
          "type": "bytes32"
        },
        {
          "internalType": "address",
          "name": "account",
          "type": "address"
        }
      ],
      "name": "grantRole",
      "outputs": [],
      "stateMutability": "nonpayable",
      "type": "function"
    },
    {
      "inputs": [
        {
          "internalType": "bytes32",
          "name": "role",
          "type": "bytes32"
        },
        {
          "internalType": "address",
          "name": "account",
          "type": "address"
        }
      ],
      "name": "hasRole",
      "outputs": [
        {
          "internalType": "bool",
          "name": "",
          "type": "bool"
        }
      ],
      "stateMutability": "view",
      "type": "function"
    },
    {
      "inputs": [
        {
          "internalType": "address",
          "name": "spender",
          "type": "address"
        },
        {
          "internalType": "uint256",
          "name": "addedValue",
          "type": "uint256"
        }
      ],
      "name": "increaseAllowance",
      "outputs": [
        {
          "internalType": "bool",
          "name": "",
          "type": "bool"
        }
      ],
      "stateMutability": "nonpayable",
      "type": "function"
    },
    {
      "inputs": [
        {
          "internalType": "address",
          "name": "to",
          "type": "address"
        },
        {
          "internalType": "uint256",
          "name": "amount",
          "type": "uint256"
        }
      ],
      "name": "mint",
      "outputs": [],
      "stateMutability": "nonpayable",
      "type": "function"
    },
    {
      "inputs": [],
      "name": "name",
      "outputs": [
        {
          "internalType": "string",
          "name": "",
          "type": "string"
        }
      ],
      "stateMutability": "view",
      "type": "function"
    },
    {
      "inputs": [
        {
          "internalType": "address",
          "name": "owner",
          "type": "address"
        }
      ],
      "name": "nonces",
      "outputs": [
        {
          "internalType": "uint256",
          "name": "",
          "type": "uint256"
        }
      ],
      "stateMutability": "view",
      "type": "function"
    },
    {
      "inputs": [
        {
          "internalType": "address",
          "name": "account",
          "type": "address"
        }
      ],
      "name": "numCheckpoints",
      "outputs": [
        {
          "internalType": "uint32",
          "name": "",
          "type": "uint32"
        }
      ],
      "stateMutability": "view",
      "type": "function"
    },
    {
      "inputs": [
        {
          "internalType": "address",
          "name": "owner",
          "type": "address"
        },
        {
          "internalType": "address",
          "name": "spender",
          "type": "address"
        },
        {
          "internalType": "uint256",
          "name": "value",
          "type": "uint256"
        },
        {
          "internalType": "uint256",
          "name": "deadline",
          "type": "uint256"
        },
        {
          "internalType": "uint8",
          "name": "v",
          "type": "uint8"
        },
        {
          "internalType": "bytes32",
          "name": "r",
          "type": "bytes32"
        },
        {
          "internalType": "bytes32",
          "name": "s",
          "type": "bytes32"
        }
      ],
      "name": "permit",
      "outputs": [],
      "stateMutability": "nonpayable",
      "type": "function"
    },
    {
      "inputs": [
        {
          "internalType": "bytes32",
          "name": "role",
          "type": "bytes32"
        },
        {
          "internalType": "address",
          "name": "account",
          "type": "address"
        }
      ],
      "name": "renounceRole",
      "outputs": [],
      "stateMutability": "nonpayable",
      "type": "function"
    },
    {
      "inputs": [
        {
          "internalType": "bytes32",
          "name": "role",
          "type": "bytes32"
        },
        {
          "internalType": "address",
          "name": "account",
          "type": "address"
        }
      ],
      "name": "revokeRole",
      "outputs": [],
      "stateMutability": "nonpayable",
      "type": "function"
    },
    {
      "inputs": [
        {
          "internalType": "address",
          "name": "tokenized_ballot",
          "type": "address"
        }
      ],
      "name": "setMinterRoles",
      "outputs": [],
      "stateMutability": "nonpayable",
      "type": "function"
    },
    {
      "inputs": [
        {
          "internalType": "bytes4",
          "name": "interfaceId",
          "type": "bytes4"
        }
      ],
      "name": "supportsInterface",
      "outputs": [
        {
          "internalType": "bool",
          "name": "",
          "type": "bool"
        }
      ],
      "stateMutability": "view",
      "type": "function"
    },
    {
      "inputs": [],
      "name": "symbol",
      "outputs": [
        {
          "internalType": "string",
          "name": "",
          "type": "string"
        }
      ],
      "stateMutability": "view",
      "type": "function"
    },
    {
      "inputs": [],
      "name": "totalSupply",
      "outputs": [
        {
          "internalType": "uint256",
          "name": "",
          "type": "uint256"
        }
      ],
      "stateMutability": "view",
      "type": "function"
    },
    {
      "inputs": [
        {
          "internalType": "address",
          "name": "to",
          "type": "address"
        },
        {
          "internalType": "uint256",
          "name": "amount",
          "type": "uint256"
        }
      ],
      "name": "transfer",
      "outputs": [
        {
          "internalType": "bool",
          "name": "",
          "type": "bool"
        }
      ],
      "stateMutability": "nonpayable",
      "type": "function"
    },
    {
      "inputs": [
        {
          "internalType": "address",
          "name": "from",
          "type": "address"
        },
        {
          "internalType": "address",
          "name": "to",
          "type": "address"
        },
        {
          "internalType": "uint256",
          "name": "amount",
          "type": "uint256"
        }
      ],
      "name": "transferFrom",
      "outputs": [
        {
          "internalType": "bool",
          "name": "",
          "type": "bool"
        }
      ],
      "stateMutability": "nonpayable",
      "type": "function"
    }
  ],
  "bytecode": "0x6101406040523480156200001257600080fd5b506040518060400160405280600781526020017f4d79546f6b656e00000000000000000000000000000000000000000000000000815250806040518060400160405280600181526020017f31000000000000000000000000000000000000000000000000000000000000008152506040518060400160405280600781526020017f4d79546f6b656e000000000000000000000000000000000000000000000000008152506040518060400160405280600381526020017f4d544b00000000000000000000000000000000000000000000000000000000008152508160039081620000fd9190620005fb565b5080600490816200010f9190620005fb565b50505060008280519060200120905060008280519060200120905060007f8b73c3c69bb8fe3d512ecc4cf759cc79239f7b179b0ffacaa9a75d522b39400f90508260e081815250508161010081815250504660a081815250506200017b818484620001e060201b60201c565b608081815250503073ffffffffffffffffffffffffffffffffffffffff1660c08173ffffffffffffffffffffffffffffffffffffffff1681525050806101208181525050505050505050620001da6000801b336200021c60201b60201c565b620007b0565b60008383834630604051602001620001fd95949392919062000753565b6040516020818303038152906040528051906020012090509392505050565b6200022e82826200030e60201b60201c565b6200030a5760016005600084815260200190815260200160002060000160008373ffffffffffffffffffffffffffffffffffffffff1673ffffffffffffffffffffffffffffffffffffffff16815260200190815260200160002060006101000a81548160ff021916908315150217905550620002af6200037960201b60201c565b73ffffffffffffffffffffffffffffffffffffffff168173ffffffffffffffffffffffffffffffffffffffff16837f2f8788117e7eff1d82e926ec794901d17c78024a50270940304540a733656f0d60405160405180910390a45b5050565b60006005600084815260200190815260200160002060000160008373ffffffffffffffffffffffffffffffffffffffff1673ffffffffffffffffffffffffffffffffffffffff16815260200190815260200160002060009054906101000a900460ff16905092915050565b600033905090565b600081519050919050565b7f4e487b7100000000000000000000000000000000000000000000000000000000600052604160045260246000fd5b7f4e487b7100000000000000000000000000000000000000000000000000000000600052602260045260246000fd5b600060028204905060018216806200040357607f821691505b602082108103620004195762000418620003bb565b5b50919050565b60008190508160005260206000209050919050565b60006020601f8301049050919050565b600082821b905092915050565b600060088302620004837fffffffffffffffffffffffffffffffffffffffffffffffffffffffffffffffff8262000444565b6200048f868362000444565b95508019841693508086168417925050509392505050565b6000819050919050565b6000819050919050565b6000620004dc620004d6620004d084620004a7565b620004b1565b620004a7565b9050919050565b6000819050919050565b620004f883620004bb565b620005106200050782620004e3565b84845462000451565b825550505050565b600090565b6200052762000518565b62000534818484620004ed565b505050565b5b818110156200055c57620005506000826200051d565b6001810190506200053a565b5050565b601f821115620005ab5762000575816200041f565b620005808462000434565b8101602085101562000590578190505b620005a86200059f8562000434565b83018262000539565b50505b505050565b600082821c905092915050565b6000620005d060001984600802620005b0565b1980831691505092915050565b6000620005eb8383620005bd565b9150826002028217905092915050565b620006068262000381565b67ffffffffffffffff8111156200062257620006216200038c565b5b6200062e8254620003ea565b6200063b82828562000560565b600060209050601f8311600181146200067357600084156200065e578287015190505b6200066a8582620005dd565b865550620006da565b601f19841662000683866200041f565b60005b82811015620006ad5784890151825560018201915060208501945060208101905062000686565b86831015620006cd5784890151620006c9601f891682620005bd565b8355505b6001600288020188555050505b505050505050565b6000819050919050565b620006f781620006e2565b82525050565b6200070881620004a7565b82525050565b600073ffffffffffffffffffffffffffffffffffffffff82169050919050565b60006200073b826200070e565b9050919050565b6200074d816200072e565b82525050565b600060a0820190506200076a6000830188620006ec565b620007796020830187620006ec565b620007886040830186620006ec565b620007976060830185620006fd565b620007a6608083018462000742565b9695505050505050565b60805160a05160c05160e051610100516101205161459d6200080060003960006119ca01526000611a0c015260006119eb01526000611920015260006119760152600061199f015261459d6000f3fe608060405234801561001057600080fd5b50600436106101f05760003560e01c80636fcfff451161010f578063a457c2d7116100a2578063d539139311610071578063d53913931461063d578063d547741f1461065b578063dd62ed3e14610677578063f1127ed8146106a7576101f0565b8063a457c2d7146105a5578063a9059cbb146105d5578063c3cda52014610605578063d505accf14610621576101f0565b806391d14854116100de57806391d148541461050957806395d89b41146105395780639ab24eb014610557578063a217fddf14610587576101f0565b80636fcfff451461044957806370a08231146104795780637ecebe00146104a95780638e539e8c146104d9576101f0565b8063313ce567116101875780633a46b1a8116101565780633a46b1a8146103b157806340c10f19146103e1578063587cde1e146103fd5780635c19a95c1461042d576101f0565b8063313ce567146103295780633644e5151461034757806336568abe146103655780633950935114610381576101f0565b80631940ede1116101c35780631940ede11461029157806323b872dd146102ad578063248a9ca3146102dd5780632f2ff15d1461030d576101f0565b806301ffc9a7146101f557806306fdde0314610225578063095ea7b31461024357806318160ddd14610273575b600080fd5b61020f600480360381019061020a9190612ec2565b6106d7565b60405161021c9190612f0a565b60405180910390f35b61022d610751565b60405161023a9190612fb5565b60405180910390f35b61025d6004803603810190610258919061306b565b6107e3565b60405161026a9190612f0a565b60405180910390f35b61027b610806565b60405161028891906130ba565b60405180910390f35b6102ab60048036038101906102a691906130d5565b610810565b005b6102c760048036038101906102c29190613102565b61084b565b6040516102d49190612f0a565b60405180910390f35b6102f760048036038101906102f2919061318b565b61087a565b60405161030491906131c7565b60405180910390f35b610327600480360381019061032291906131e2565b61089a565b005b6103316108bb565b60405161033e919061323e565b60405180910390f35b61034f6108c4565b60405161035c91906131c7565b60405180910390f35b61037f600480360381019061037a91906131e2565b6108d3565b005b61039b6004803603810190610396919061306b565b610956565b6040516103a89190612f0a565b60405180910390f35b6103cb60048036038101906103c6919061306b565b61098d565b6040516103d891906130ba565b60405180910390f35b6103fb60048036038101906103f6919061306b565b610a21565b005b610417600480360381019061041291906130d5565b610a5a565b6040516104249190613268565b60405180910390f35b610447600480360381019061044291906130d5565b610ac3565b005b610463600480360381019061045e91906130d5565b610ad7565b60405161047091906132a2565b60405180910390f35b610493600480360381019061048e91906130d5565b610b2b565b6040516104a091906130ba565b60405180910390f35b6104c360048036038101906104be91906130d5565b610b73565b6040516104d091906130ba565b60405180910390f35b6104f360048036038101906104ee91906132bd565b610bc3565b60405161050091906130ba565b60405180910390f35b610523600480360381019061051e91906131e2565b610c19565b6040516105309190612f0a565b60405180910390f35b610541610c84565b60405161054e9190612fb5565b60405180910390f35b610571600480360381019061056c91906130d5565b610d16565b60405161057e91906130ba565b60405180910390f35b61058f610e27565b60405161059c91906131c7565b60405180910390f35b6105bf60048036038101906105ba919061306b565b610e2e565b6040516105cc9190612f0a565b60405180910390f35b6105ef60048036038101906105ea919061306b565b610ea5565b6040516105fc9190612f0a565b60405180910390f35b61061f600480360381019061061a9190613316565b610ec8565b005b61063b600480360381019061063691906133a3565b610fcc565b005b61064561110e565b60405161065291906131c7565b60405180910390f35b610675600480360381019061067091906131e2565b611132565b005b610691600480360381019061068c9190613445565b611153565b60405161069e91906130ba565b60405180910390f35b6106c160048036038101906106bc91906134b1565b6111da565b6040516106ce9190613566565b60405180910390f35b60007f7965db0b000000000000000000000000000000000000000000000000000000007bffffffffffffffffffffffffffffffffffffffffffffffffffffffff1916827bffffffffffffffffffffffffffffffffffffffffffffffffffffffff1916148061074a5750610749826112ea565b5b9050919050565b606060038054610760906135b0565b80601f016020809104026020016040519081016040528092919081815260200182805461078c906135b0565b80156107d95780601f106107ae576101008083540402835291602001916107d9565b820191906000526020600020905b8154815290600101906020018083116107bc57829003601f168201915b5050505050905090565b6000806107ee611354565b90506107fb81858561135c565b600191505092915050565b6000600254905090565b6000801b61081d81611525565b6108477f9f2df0fed2c77648de5860a4cc508cd0818c85b8b8a1ab4ceeef8d981c8956a683611539565b5050565b600080610856611354565b905061086385828561161a565b61086e8585856116a6565b60019150509392505050565b600060056000838152602001908152602001600020600101549050919050565b6108a38261087a565b6108ac81611525565b6108b68383611539565b505050565b60006012905090565b60006108ce61191c565b905090565b6108db611354565b73ffffffffffffffffffffffffffffffffffffffff168173ffffffffffffffffffffffffffffffffffffffff1614610948576040517f08c379a000000000000000000000000000000000000000000000000000000000815260040161093f90613653565b60405180910390fd5b6109528282611a36565b5050565b600080610961611354565b90506109828185856109738589611153565b61097d91906136a2565b61135c565b600191505092915050565b60004382106109d1576040517f08c379a00000000000000000000000000000000000000000000000000000000081526004016109c890613722565b60405180910390fd5b610a19600960008573ffffffffffffffffffffffffffffffffffffffff1673ffffffffffffffffffffffffffffffffffffffff16815260200190815260200160002083611b18565b905092915050565b7f9f2df0fed2c77648de5860a4cc508cd0818c85b8b8a1ab4ceeef8d981c8956a6610a4b81611525565b610a558383611c69565b505050565b6000600860008373ffffffffffffffffffffffffffffffffffffffff1673ffffffffffffffffffffffffffffffffffffffff16815260200190815260200160002060009054906101000a900473ffffffffffffffffffffffffffffffffffffffff169050919050565b610ad4610ace611354565b82611c77565b50565b6000610b24600960008473ffffffffffffffffffffffffffffffffffffffff1673ffffffffffffffffffffffffffffffffffffffff16815260200190815260200160002080549050611d91565b9050919050565b60008060008373ffffffffffffffffffffffffffffffffffffffff1673ffffffffffffffffffffffffffffffffffffffff168152602001908152602001600020549050919050565b6000610bbc600660008473ffffffffffffffffffffffffffffffffffffffff1673ffffffffffffffffffffffffffffffffffffffff168152602001908152602001600020611de4565b9050919050565b6000438210610c07576040517f08c379a0000000000000000000000000000000000000000000000000000000008152600401610bfe90613722565b60405180910390fd5b610c12600a83611b18565b9050919050565b60006005600084815260200190815260200160002060000160008373ffffffffffffffffffffffffffffffffffffffff1673ffffffffffffffffffffffffffffffffffffffff16815260200190815260200160002060009054906101000a900460ff16905092915050565b606060048054610c93906135b0565b80601f0160208091040260200160405190810160405280929190818152602001828054610cbf906135b0565b8015610d0c5780601f10610ce157610100808354040283529160200191610d0c565b820191906000526020600020905b815481529060010190602001808311610cef57829003601f168201915b5050505050905090565b600080600960008473ffffffffffffffffffffffffffffffffffffffff1673ffffffffffffffffffffffffffffffffffffffff16815260200190815260200160002080549050905060008114610dfe57600960008473ffffffffffffffffffffffffffffffffffffffff1673ffffffffffffffffffffffffffffffffffffffff168152602001908152602001600020600182610db29190613742565b81548110610dc357610dc2613776565b5b9060005260206000200160000160049054906101000a90047bffffffffffffffffffffffffffffffffffffffffffffffffffffffff16610e01565b60005b7bffffffffffffffffffffffffffffffffffffffffffffffffffffffff16915050919050565b6000801b81565b600080610e39611354565b90506000610e478286611153565b905083811015610e8c576040517f08c379a0000000000000000000000000000000000000000000000000000000008152600401610e8390613817565b60405180910390fd5b610e99828686840361135c565b60019250505092915050565b600080610eb0611354565b9050610ebd8185856116a6565b600191505092915050565b83421115610f0b576040517f08c379a0000000000000000000000000000000000000000000000000000000008152600401610f0290613883565b60405180910390fd5b6000610f6d610f657fe48329057bfd03d55e49b547132e39cffd9c1820ad7b9d4c5307691425d15adf898989604051602001610f4a94939291906138a3565b60405160208183030381529060405280519060200120611df2565b858585611e0c565b9050610f7881611e37565b8614610fb9576040517f08c379a0000000000000000000000000000000000000000000000000000000008152600401610fb090613934565b60405180910390fd5b610fc38188611c77565b50505050505050565b8342111561100f576040517f08c379a0000000000000000000000000000000000000000000000000000000008152600401611006906139a0565b60405180910390fd5b60007f6e71edae12b1b97f4d1f60370fef10105fa2faae0126114a169c64845d6126c988888861103e8c611e37565b89604051602001611054969594939291906139c0565b604051602081830303815290604052805190602001209050600061107782611df2565b9050600061108782878787611e0c565b90508973ffffffffffffffffffffffffffffffffffffffff168173ffffffffffffffffffffffffffffffffffffffff16146110f7576040517f08c379a00000000000000000000000000000000000000000000000000000000081526004016110ee90613a6d565b60405180910390fd5b6111028a8a8a61135c565b50505050505050505050565b7f9f2df0fed2c77648de5860a4cc508cd0818c85b8b8a1ab4ceeef8d981c8956a681565b61113b8261087a565b61114481611525565b61114e8383611a36565b505050565b6000600160008473ffffffffffffffffffffffffffffffffffffffff1673ffffffffffffffffffffffffffffffffffffffff16815260200190815260200160002060008373ffffffffffffffffffffffffffffffffffffffff1673ffffffffffffffffffffffffffffffffffffffff16815260200190815260200160002054905092915050565b6111e2612e27565b600960008473ffffffffffffffffffffffffffffffffffffffff1673ffffffffffffffffffffffffffffffffffffffff1681526020019081526020016000208263ffffffff168154811061123957611238613776565b5b906000526020600020016040518060400160405290816000820160009054906101000a900463ffffffff1663ffffffff1663ffffffff1681526020016000820160049054906101000a90047bffffffffffffffffffffffffffffffffffffffffffffffffffffffff167bffffffffffffffffffffffffffffffffffffffffffffffffffffffff167bffffffffffffffffffffffffffffffffffffffffffffffffffffffff1681525050905092915050565b60007f01ffc9a7000000000000000000000000000000000000000000000000000000007bffffffffffffffffffffffffffffffffffffffffffffffffffffffff1916827bffffffffffffffffffffffffffffffffffffffffffffffffffffffff1916149050919050565b600033905090565b600073ffffffffffffffffffffffffffffffffffffffff168373ffffffffffffffffffffffffffffffffffffffff16036113cb576040517f08c379a00000000000000000000000000000000000000000000000000000000081526004016113c290613aff565b60405180910390fd5b600073ffffffffffffffffffffffffffffffffffffffff168273ffffffffffffffffffffffffffffffffffffffff160361143a576040517f08c379a000000000000000000000000000000000000000000000000000000000815260040161143190613b91565b60405180910390fd5b80600160008573ffffffffffffffffffffffffffffffffffffffff1673ffffffffffffffffffffffffffffffffffffffff16815260200190815260200160002060008473ffffffffffffffffffffffffffffffffffffffff1673ffffffffffffffffffffffffffffffffffffffff168152602001908152602001600020819055508173ffffffffffffffffffffffffffffffffffffffff168373ffffffffffffffffffffffffffffffffffffffff167f8c5be1e5ebec7d5bd14f71427d1e84f3dd0314c0f7b2291e5b200ac8c7c3b9258360405161151891906130ba565b60405180910390a3505050565b61153681611531611354565b611e95565b50565b6115438282610c19565b6116165760016005600084815260200190815260200160002060000160008373ffffffffffffffffffffffffffffffffffffffff1673ffffffffffffffffffffffffffffffffffffffff16815260200190815260200160002060006101000a81548160ff0219169083151502179055506115bb611354565b73ffffffffffffffffffffffffffffffffffffffff168173ffffffffffffffffffffffffffffffffffffffff16837f2f8788117e7eff1d82e926ec794901d17c78024a50270940304540a733656f0d60405160405180910390a45b5050565b60006116268484611153565b90507fffffffffffffffffffffffffffffffffffffffffffffffffffffffffffffffff81146116a05781811015611692576040517f08c379a000000000000000000000000000000000000000000000000000000000815260040161168990613bfd565b60405180910390fd5b61169f848484840361135c565b5b50505050565b600073ffffffffffffffffffffffffffffffffffffffff168373ffffffffffffffffffffffffffffffffffffffff1603611715576040517f08c379a000000000000000000000000000000000000000000000000000000000815260040161170c90613c8f565b60405180910390fd5b600073ffffffffffffffffffffffffffffffffffffffff168273ffffffffffffffffffffffffffffffffffffffff1603611784576040517f08c379a000000000000000000000000000000000000000000000000000000000815260040161177b90613d21565b60405180910390fd5b61178f838383611f1a565b60008060008573ffffffffffffffffffffffffffffffffffffffff1673ffffffffffffffffffffffffffffffffffffffff16815260200190815260200160002054905081811015611815576040517f08c379a000000000000000000000000000000000000000000000000000000000815260040161180c90613db3565b60405180910390fd5b8181036000808673ffffffffffffffffffffffffffffffffffffffff1673ffffffffffffffffffffffffffffffffffffffff16815260200190815260200160002081905550816000808573ffffffffffffffffffffffffffffffffffffffff1673ffffffffffffffffffffffffffffffffffffffff168152602001908152602001600020600082825401925050819055508273ffffffffffffffffffffffffffffffffffffffff168473ffffffffffffffffffffffffffffffffffffffff167fddf252ad1be2c89b69c2b068fc378daa952ba7f163c4a11628f55a4df523b3ef8460405161190391906130ba565b60405180910390a3611916848484611f1f565b50505050565b60007f000000000000000000000000000000000000000000000000000000000000000073ffffffffffffffffffffffffffffffffffffffff163073ffffffffffffffffffffffffffffffffffffffff1614801561199857507f000000000000000000000000000000000000000000000000000000000000000046145b156119c5577f00000000000000000000000000000000000000000000000000000000000000009050611a33565b611a307f00000000000000000000000000000000000000000000000000000000000000007f00000000000000000000000000000000000000000000000000000000000000007f0000000000000000000000000000000000000000000000000000000000000000611f2f565b90505b90565b611a408282610c19565b15611b145760006005600084815260200190815260200160002060000160008373ffffffffffffffffffffffffffffffffffffffff1673ffffffffffffffffffffffffffffffffffffffff16815260200190815260200160002060006101000a81548160ff021916908315150217905550611ab9611354565b73ffffffffffffffffffffffffffffffffffffffff168173ffffffffffffffffffffffffffffffffffffffff16837ff6391f5c32d9c69d2a47ea670b442974b53935d1edc7fd64eb21e047a839171b60405160405180910390a45b5050565b600080838054905090506000808290506005831115611b8e576000611b3c84611f69565b84611b479190613742565b905085611b548883612062565b60000160009054906101000a900463ffffffff1663ffffffff161115611b7c57809150611b8c565b600181611b8991906136a2565b92505b505b5b80821015611bee576000611ba38383612077565b905085611bb08883612062565b60000160009054906101000a900463ffffffff1663ffffffff161115611bd857809150611be8565b600181611be591906136a2565b92505b50611b8f565b60008114611c3d57611c0c86600183611c079190613742565b612062565b60000160049054906101000a90047bffffffffffffffffffffffffffffffffffffffffffffffffffffffff16611c40565b60005b7bffffffffffffffffffffffffffffffffffffffffffffffffffffffff16935050505092915050565b611c73828261209d565b5050565b6000611c8283610a5a565b90506000611c8f84610b2b565b905082600860008673ffffffffffffffffffffffffffffffffffffffff1673ffffffffffffffffffffffffffffffffffffffff16815260200190815260200160002060006101000a81548173ffffffffffffffffffffffffffffffffffffffff021916908373ffffffffffffffffffffffffffffffffffffffff1602179055508273ffffffffffffffffffffffffffffffffffffffff168273ffffffffffffffffffffffffffffffffffffffff168573ffffffffffffffffffffffffffffffffffffffff167f3134e8a2e6d97e929a7e54011ea5485d7d196dd5f0ba4d4ef95803e8e3fc257f60405160405180910390a4611d8b82848361212a565b50505050565b600063ffffffff8016821115611ddc576040517f08c379a0000000000000000000000000000000000000000000000000000000008152600401611dd390613e45565b60405180910390fd5b819050919050565b600081600001549050919050565b6000611e05611dff61191c565b83612323565b9050919050565b6000806000611e1d87878787612356565b91509150611e2a81612438565b8192505050949350505050565b600080600660008473ffffffffffffffffffffffffffffffffffffffff1673ffffffffffffffffffffffffffffffffffffffff1681526020019081526020016000209050611e8481611de4565b9150611e8f8161259e565b50919050565b611e9f8282610c19565b611f1657611eac816125b4565b611eba8360001c60206125e1565b604051602001611ecb929190613f39565b6040516020818303038152906040526040517f08c379a0000000000000000000000000000000000000000000000000000000008152600401611f0d9190612fb5565b60405180910390fd5b5050565b505050565b611f2a83838361281d565b505050565b60008383834630604051602001611f4a959493929190613f73565b6040516020818303038152906040528051906020012090509392505050565b6000808203611f7b576000905061205d565b60006001611f8884612848565b901c6001901b90506001818481611fa257611fa1613fc6565b5b048201901c90506001818481611fbb57611fba613fc6565b5b048201901c90506001818481611fd457611fd3613fc6565b5b048201901c90506001818481611fed57611fec613fc6565b5b048201901c9050600181848161200657612005613fc6565b5b048201901c9050600181848161201f5761201e613fc6565b5b048201901c9050600181848161203857612037613fc6565b5b048201901c90506120598182858161205357612052613fc6565b5b04612929565b9150505b919050565b60008260005281602060002001905092915050565b600060028284186120889190613ff5565b82841661209591906136a2565b905092915050565b6120a78282612942565b6120af612a98565b7bffffffffffffffffffffffffffffffffffffffffffffffffffffffff166120d5610806565b1115612116576040517f08c379a000000000000000000000000000000000000000000000000000000000815260040161210d90614098565b60405180910390fd5b612124600a612abc83612ad2565b50505050565b8173ffffffffffffffffffffffffffffffffffffffff168373ffffffffffffffffffffffffffffffffffffffff16141580156121665750600081115b1561231e57600073ffffffffffffffffffffffffffffffffffffffff168373ffffffffffffffffffffffffffffffffffffffff1614612244576000806121ed600960008773ffffffffffffffffffffffffffffffffffffffff1673ffffffffffffffffffffffffffffffffffffffff168152602001908152602001600020612da185612ad2565b915091508473ffffffffffffffffffffffffffffffffffffffff167fdec2bacdd2f05b59de34da9b523dff8be42e5e38e818c82fdb0bae774387a72483836040516122399291906140b8565b60405180910390a250505b600073ffffffffffffffffffffffffffffffffffffffff168273ffffffffffffffffffffffffffffffffffffffff161461231d576000806122c6600960008673ffffffffffffffffffffffffffffffffffffffff1673ffffffffffffffffffffffffffffffffffffffff168152602001908152602001600020612abc85612ad2565b915091508373ffffffffffffffffffffffffffffffffffffffff167fdec2bacdd2f05b59de34da9b523dff8be42e5e38e818c82fdb0bae774387a72483836040516123129291906140b8565b60405180910390a250505b5b505050565b6000828260405160200161233892919061414e565b60405160208183030381529060405280519060200120905092915050565b6000807f7fffffffffffffffffffffffffffffff5d576e7357a4501ddfe92f46681b20a08360001c111561239157600060039150915061242f565b6000600187878787604051600081526020016040526040516123b69493929190614185565b6020604051602081039080840390855afa1580156123d8573d6000803e3d6000fd5b505050602060405103519050600073ffffffffffffffffffffffffffffffffffffffff168173ffffffffffffffffffffffffffffffffffffffff16036124265760006001925092505061242f565b80600092509250505b94509492505050565b6000600481111561244c5761244b6141ca565b5b81600481111561245f5761245e6141ca565b5b031561259b5760016004811115612479576124786141ca565b5b81600481111561248c5761248b6141ca565b5b036124cc576040517f08c379a00000000000000000000000000000000000000000000000000000000081526004016124c390614245565b60405180910390fd5b600260048111156124e0576124df6141ca565b5b8160048111156124f3576124f26141ca565b5b03612533576040517f08c379a000000000000000000000000000000000000000000000000000000000815260040161252a906142b1565b60405180910390fd5b60036004811115612547576125466141ca565b5b81600481111561255a576125596141ca565b5b0361259a576040517f08c379a000000000000000000000000000000000000000000000000000000000815260040161259190614343565b60405180910390fd5b5b50565b6001816000016000828254019250508190555050565b60606125da8273ffffffffffffffffffffffffffffffffffffffff16601460ff166125e1565b9050919050565b6060600060028360026125f49190614363565b6125fe91906136a2565b67ffffffffffffffff811115612617576126166143a5565b5b6040519080825280601f01601f1916602001820160405280156126495781602001600182028036833780820191505090505b5090507f30000000000000000000000000000000000000000000000000000000000000008160008151811061268157612680613776565b5b60200101907effffffffffffffffffffffffffffffffffffffffffffffffffffffffffffff1916908160001a9053507f7800000000000000000000000000000000000000000000000000000000000000816001815181106126e5576126e4613776565b5b60200101907effffffffffffffffffffffffffffffffffffffffffffffffffffffffffffff1916908160001a905350600060018460026127259190614363565b61272f91906136a2565b90505b60018111156127cf577f3031323334353637383961626364656600000000000000000000000000000000600f86166010811061277157612770613776565b5b1a60f81b82828151811061278857612787613776565b5b60200101907effffffffffffffffffffffffffffffffffffffffffffffffffffffffffffff1916908160001a905350600485901c9450806127c8906143d4565b9050612732565b5060008414612813576040517f08c379a000000000000000000000000000000000000000000000000000000000815260040161280a90614449565b60405180910390fd5b8091505092915050565b612828838383612db7565b61284361283484610a5a565b61283d84610a5a565b8361212a565b505050565b600080600090506000608084901c111561286a57608083901c92506080810190505b6000604084901c111561288557604083901c92506040810190505b6000602084901c11156128a057602083901c92506020810190505b6000601084901c11156128bb57601083901c92506010810190505b6000600884901c11156128d657600883901c92506008810190505b6000600484901c11156128f157600483901c92506004810190505b6000600284901c111561290c57600283901c92506002810190505b6000600184901c1115612920576001810190505b80915050919050565b6000818310612938578161293a565b825b905092915050565b600073ffffffffffffffffffffffffffffffffffffffff168273ffffffffffffffffffffffffffffffffffffffff16036129b1576040517f08c379a00000000000000000000000000000000000000000000000000000000081526004016129a8906144b5565b60405180910390fd5b6129bd60008383611f1a565b80600260008282546129cf91906136a2565b92505081905550806000808473ffffffffffffffffffffffffffffffffffffffff1673ffffffffffffffffffffffffffffffffffffffff168152602001908152602001600020600082825401925050819055508173ffffffffffffffffffffffffffffffffffffffff16600073ffffffffffffffffffffffffffffffffffffffff167fddf252ad1be2c89b69c2b068fc378daa952ba7f163c4a11628f55a4df523b3ef83604051612a8091906130ba565b60405180910390a3612a9460008383611f1f565b5050565b60007bffffffffffffffffffffffffffffffffffffffffffffffffffffffff905090565b60008183612aca91906136a2565b905092915050565b6000806000858054905090506000808214612ba157612afd87600184612af89190613742565b612062565b6040518060400160405290816000820160009054906101000a900463ffffffff1663ffffffff1663ffffffff1681526020016000820160049054906101000a90047bffffffffffffffffffffffffffffffffffffffffffffffffffffffff167bffffffffffffffffffffffffffffffffffffffffffffffffffffffff167bffffffffffffffffffffffffffffffffffffffffffffffffffffffff1681525050612bdd565b6040518060400160405280600063ffffffff16815260200160007bffffffffffffffffffffffffffffffffffffffffffffffffffffffff168152505b905080602001517bffffffffffffffffffffffffffffffffffffffffffffffffffffffff169350612c1284868863ffffffff16565b9250600082118015612c2d575043816000015163ffffffff16145b15612ca757612c3b83612dbc565b612c5188600185612c4c9190613742565b612062565b60000160046101000a8154817bffffffffffffffffffffffffffffffffffffffffffffffffffffffff02191690837bffffffffffffffffffffffffffffffffffffffffffffffffffffffff160217905550612d97565b866040518060400160405280612cbc43611d91565b63ffffffff168152602001612cd086612dbc565b7bffffffffffffffffffffffffffffffffffffffffffffffffffffffff168152509080600181540180825580915050600190039060005260206000200160009091909190915060008201518160000160006101000a81548163ffffffff021916908363ffffffff16021790555060208201518160000160046101000a8154817bffffffffffffffffffffffffffffffffffffffffffffffffffffffff02191690837bffffffffffffffffffffffffffffffffffffffffffffffffffffffff16021790555050505b5050935093915050565b60008183612daf9190613742565b905092915050565b505050565b60007bffffffffffffffffffffffffffffffffffffffffffffffffffffffff8016821115612e1f576040517f08c379a0000000000000000000000000000000000000000000000000000000008152600401612e1690614547565b60405180910390fd5b819050919050565b6040518060400160405280600063ffffffff16815260200160007bffffffffffffffffffffffffffffffffffffffffffffffffffffffff1681525090565b600080fd5b60007fffffffff0000000000000000000000000000000000000000000000000000000082169050919050565b612e9f81612e6a565b8114612eaa57600080fd5b50565b600081359050612ebc81612e96565b92915050565b600060208284031215612ed857612ed7612e65565b5b6000612ee684828501612ead565b91505092915050565b60008115159050919050565b612f0481612eef565b82525050565b6000602082019050612f1f6000830184612efb565b92915050565b600081519050919050565b600082825260208201905092915050565b60005b83811015612f5f578082015181840152602081019050612f44565b60008484015250505050565b6000601f19601f8301169050919050565b6000612f8782612f25565b612f918185612f30565b9350612fa1818560208601612f41565b612faa81612f6b565b840191505092915050565b60006020820190508181036000830152612fcf8184612f7c565b905092915050565b600073ffffffffffffffffffffffffffffffffffffffff82169050919050565b600061300282612fd7565b9050919050565b61301281612ff7565b811461301d57600080fd5b50565b60008135905061302f81613009565b92915050565b6000819050919050565b61304881613035565b811461305357600080fd5b50565b6000813590506130658161303f565b92915050565b6000806040838503121561308257613081612e65565b5b600061309085828601613020565b92505060206130a185828601613056565b9150509250929050565b6130b481613035565b82525050565b60006020820190506130cf60008301846130ab565b92915050565b6000602082840312156130eb576130ea612e65565b5b60006130f984828501613020565b91505092915050565b60008060006060848603121561311b5761311a612e65565b5b600061312986828701613020565b935050602061313a86828701613020565b925050604061314b86828701613056565b9150509250925092565b6000819050919050565b61316881613155565b811461317357600080fd5b50565b6000813590506131858161315f565b92915050565b6000602082840312156131a1576131a0612e65565b5b60006131af84828501613176565b91505092915050565b6131c181613155565b82525050565b60006020820190506131dc60008301846131b8565b92915050565b600080604083850312156131f9576131f8612e65565b5b600061320785828601613176565b925050602061321885828601613020565b9150509250929050565b600060ff82169050919050565b61323881613222565b82525050565b6000602082019050613253600083018461322f565b92915050565b61326281612ff7565b82525050565b600060208201905061327d6000830184613259565b92915050565b600063ffffffff82169050919050565b61329c81613283565b82525050565b60006020820190506132b76000830184613293565b92915050565b6000602082840312156132d3576132d2612e65565b5b60006132e184828501613056565b91505092915050565b6132f381613222565b81146132fe57600080fd5b50565b600081359050613310816132ea565b92915050565b60008060008060008060c0878903121561333357613332612e65565b5b600061334189828a01613020565b965050602061335289828a01613056565b955050604061336389828a01613056565b945050606061337489828a01613301565b935050608061338589828a01613176565b92505060a061339689828a01613176565b9150509295509295509295565b600080600080600080600060e0888a0312156133c2576133c1612e65565b5b60006133d08a828b01613020565b97505060206133e18a828b01613020565b96505060406133f28a828b01613056565b95505060606134038a828b01613056565b94505060806134148a828b01613301565b93505060a06134258a828b01613176565b92505060c06134368a828b01613176565b91505092959891949750929550565b6000806040838503121561345c5761345b612e65565b5b600061346a85828601613020565b925050602061347b85828601613020565b9150509250929050565b61348e81613283565b811461349957600080fd5b50565b6000813590506134ab81613485565b92915050565b600080604083850312156134c8576134c7612e65565b5b60006134d685828601613020565b92505060206134e78582860161349c565b9150509250929050565b6134fa81613283565b82525050565b60007bffffffffffffffffffffffffffffffffffffffffffffffffffffffff82169050919050565b61353181613500565b82525050565b60408201600082015161354d60008501826134f1565b5060208201516135606020850182613528565b50505050565b600060408201905061357b6000830184613537565b92915050565b7f4e487b7100000000000000000000000000000000000000000000000000000000600052602260045260246000fd5b600060028204905060018216806135c857607f821691505b6020821081036135db576135da613581565b5b50919050565b7f416363657373436f6e74726f6c3a2063616e206f6e6c792072656e6f756e636560008201527f20726f6c657320666f722073656c660000000000000000000000000000000000602082015250565b600061363d602f83612f30565b9150613648826135e1565b604082019050919050565b6000602082019050818103600083015261366c81613630565b9050919050565b7f4e487b7100000000000000000000000000000000000000000000000000000000600052601160045260246000fd5b60006136ad82613035565b91506136b883613035565b92508282019050808211156136d0576136cf613673565b5b92915050565b7f4552433230566f7465733a20626c6f636b206e6f7420796574206d696e656400600082015250565b600061370c601f83612f30565b9150613717826136d6565b602082019050919050565b6000602082019050818103600083015261373b816136ff565b9050919050565b600061374d82613035565b915061375883613035565b92508282039050818111156137705761376f613673565b5b92915050565b7f4e487b7100000000000000000000000000000000000000000000000000000000600052603260045260246000fd5b7f45524332303a2064656372656173656420616c6c6f77616e63652062656c6f7760008201527f207a65726f000000000000000000000000000000000000000000000000000000602082015250565b6000613801602583612f30565b915061380c826137a5565b604082019050919050565b60006020820190508181036000830152613830816137f4565b9050919050565b7f4552433230566f7465733a207369676e61747572652065787069726564000000600082015250565b600061386d601d83612f30565b915061387882613837565b602082019050919050565b6000602082019050818103600083015261389c81613860565b9050919050565b60006080820190506138b860008301876131b8565b6138c56020830186613259565b6138d260408301856130ab565b6138df60608301846130ab565b95945050505050565b7f4552433230566f7465733a20696e76616c6964206e6f6e636500000000000000600082015250565b600061391e601983612f30565b9150613929826138e8565b602082019050919050565b6000602082019050818103600083015261394d81613911565b9050919050565b7f45524332305065726d69743a206578706972656420646561646c696e65000000600082015250565b600061398a601d83612f30565b915061399582613954565b602082019050919050565b600060208201905081810360008301526139b98161397d565b9050919050565b600060c0820190506139d560008301896131b8565b6139e26020830188613259565b6139ef6040830187613259565b6139fc60608301866130ab565b613a0960808301856130ab565b613a1660a08301846130ab565b979650505050505050565b7f45524332305065726d69743a20696e76616c6964207369676e61747572650000600082015250565b6000613a57601e83612f30565b9150613a6282613a21565b602082019050919050565b60006020820190508181036000830152613a8681613a4a565b9050919050565b7f45524332303a20617070726f76652066726f6d20746865207a65726f2061646460008201527f7265737300000000000000000000000000000000000000000000000000000000602082015250565b6000613ae9602483612f30565b9150613af482613a8d565b604082019050919050565b60006020820190508181036000830152613b1881613adc565b9050919050565b7f45524332303a20617070726f766520746f20746865207a65726f20616464726560008201527f7373000000000000000000000000000000000000000000000000000000000000602082015250565b6000613b7b602283612f30565b9150613b8682613b1f565b604082019050919050565b60006020820190508181036000830152613baa81613b6e565b9050919050565b7f45524332303a20696e73756666696369656e7420616c6c6f77616e6365000000600082015250565b6000613be7601d83612f30565b9150613bf282613bb1565b602082019050919050565b60006020820190508181036000830152613c1681613bda565b9050919050565b7f45524332303a207472616e736665722066726f6d20746865207a65726f20616460008201527f6472657373000000000000000000000000000000000000000000000000000000602082015250565b6000613c79602583612f30565b9150613c8482613c1d565b604082019050919050565b60006020820190508181036000830152613ca881613c6c565b9050919050565b7f45524332303a207472616e7366657220746f20746865207a65726f206164647260008201527f6573730000000000000000000000000000000000000000000000000000000000602082015250565b6000613d0b602383612f30565b9150613d1682613caf565b604082019050919050565b60006020820190508181036000830152613d3a81613cfe565b9050919050565b7f45524332303a207472616e7366657220616d6f756e742065786365656473206260008201527f616c616e63650000000000000000000000000000000000000000000000000000602082015250565b6000613d9d602683612f30565b9150613da882613d41565b604082019050919050565b60006020820190508181036000830152613dcc81613d90565b9050919050565b7f53616665436173743a2076616c756520646f65736e27742066697420696e203360008201527f3220626974730000000000000000000000000000000000000000000000000000602082015250565b6000613e2f602683612f30565b9150613e3a82613dd3565b604082019050919050565b60006020820190508181036000830152613e5e81613e22565b9050919050565b600081905092915050565b7f416363657373436f6e74726f6c3a206163636f756e7420000000000000000000600082015250565b6000613ea6601783613e65565b9150613eb182613e70565b601782019050919050565b6000613ec782612f25565b613ed18185613e65565b9350613ee1818560208601612f41565b80840191505092915050565b7f206973206d697373696e6720726f6c6520000000000000000000000000000000600082015250565b6000613f23601183613e65565b9150613f2e82613eed565b601182019050919050565b6000613f4482613e99565b9150613f508285613ebc565b9150613f5b82613f16565b9150613f678284613ebc565b91508190509392505050565b600060a082019050613f8860008301886131b8565b613f9560208301876131b8565b613fa260408301866131b8565b613faf60608301856130ab565b613fbc6080830184613259565b9695505050505050565b7f4e487b7100000000000000000000000000000000000000000000000000000000600052601260045260246000fd5b600061400082613035565b915061400b83613035565b92508261401b5761401a613fc6565b5b828204905092915050565b7f4552433230566f7465733a20746f74616c20737570706c79207269736b73206f60008201527f766572666c6f77696e6720766f74657300000000000000000000000000000000602082015250565b6000614082603083612f30565b915061408d82614026565b604082019050919050565b600060208201905081810360008301526140b181614075565b9050919050565b60006040820190506140cd60008301856130ab565b6140da60208301846130ab565b9392505050565b7f1901000000000000000000000000000000000000000000000000000000000000600082015250565b6000614117600283613e65565b9150614122826140e1565b600282019050919050565b6000819050919050565b61414861414382613155565b61412d565b82525050565b60006141598261410a565b91506141658285614137565b6020820191506141758284614137565b6020820191508190509392505050565b600060808201905061419a60008301876131b8565b6141a7602083018661322f565b6141b460408301856131b8565b6141c160608301846131b8565b95945050505050565b7f4e487b7100000000000000000000000000000000000000000000000000000000600052602160045260246000fd5b7f45434453413a20696e76616c6964207369676e61747572650000000000000000600082015250565b600061422f601883612f30565b915061423a826141f9565b602082019050919050565b6000602082019050818103600083015261425e81614222565b9050919050565b7f45434453413a20696e76616c6964207369676e6174757265206c656e67746800600082015250565b600061429b601f83612f30565b91506142a682614265565b602082019050919050565b600060208201905081810360008301526142ca8161428e565b9050919050565b7f45434453413a20696e76616c6964207369676e6174757265202773272076616c60008201527f7565000000000000000000000000000000000000000000000000000000000000602082015250565b600061432d602283612f30565b9150614338826142d1565b604082019050919050565b6000602082019050818103600083015261435c81614320565b9050919050565b600061436e82613035565b915061437983613035565b925082820261438781613035565b9150828204841483151761439e5761439d613673565b5b5092915050565b7f4e487b7100000000000000000000000000000000000000000000000000000000600052604160045260246000fd5b60006143df82613035565b9150600082036143f2576143f1613673565b5b600182039050919050565b7f537472696e67733a20686578206c656e67746820696e73756666696369656e74600082015250565b6000614433602083612f30565b915061443e826143fd565b602082019050919050565b6000602082019050818103600083015261446281614426565b9050919050565b7f45524332303a206d696e7420746f20746865207a65726f206164647265737300600082015250565b600061449f601f83612f30565b91506144aa82614469565b602082019050919050565b600060208201905081810360008301526144ce81614492565b9050919050565b7f53616665436173743a2076616c756520646f65736e27742066697420696e203260008201527f3234206269747300000000000000000000000000000000000000000000000000602082015250565b6000614531602783612f30565b915061453c826144d5565b604082019050919050565b6000602082019050818103600083015261456081614524565b905091905056fea26469706673582212204bee724f0bb503c34d6a2d5fc798a7f90e8f8402cb30f17f2679f6598d36fcc264736f6c63430008110033",
  "linkReferences": {},
  "deployedLinkReferences": {}
}