{
  "_format": "hh-sol-artifact-1",
  "contractName": "TokenSale",
  "sourceName": "contracts/TokenSale.sol",
  "abi": [
    {
      "inputs": [
        {
          "internalType": "uint256",
          "name": "_ratio",
          "type": "uint256"
        },
        {
          "internalType": "address",
          "name": "_tokenAddress",
          "type": "address"
        }
      ],
      "stateMutability": "nonpayable",
      "type": "constructor"
    },
    {
      "inputs": [
        {
          "internalType": "uint256",
          "name": "amount",
          "type": "uint256"
        }
      ],
      "name": "burnTokens",
      "outputs": [],
      "stateMutability": "nonpayable",
      "type": "function"
    },
    {
      "inputs": [],
      "name": "buyTokens",
      "outputs": [],
      "stateMutability": "payable",
      "type": "function"
    },
    {
      "inputs": [],
      "name": "ratio",
      "outputs": [
        {
          "internalType": "uint256",
          "name": "",
          "type": "uint256"
        }
      ],
      "stateMutability": "view",
      "type": "function"
    },
    {
      "inputs": [],
      "name": "tokenAddress",
      "outputs": [
        {
          "internalType": "contract IMyToken",
          "name": "",
          "type": "address"
        }
      ],
      "stateMutability": "view",
      "type": "function"
    }
  ],
  "bytecode": "0x608060405234801561001057600080fd5b506040516105b43803806105b48339818101604052810190610032919061011a565b8160008190555080600160006101000a81548173ffffffffffffffffffffffffffffffffffffffff021916908373ffffffffffffffffffffffffffffffffffffffff160217905550505061015a565b600080fd5b6000819050919050565b61009981610086565b81146100a457600080fd5b50565b6000815190506100b681610090565b92915050565b600073ffffffffffffffffffffffffffffffffffffffff82169050919050565b60006100e7826100bc565b9050919050565b6100f7816100dc565b811461010257600080fd5b50565b600081519050610114816100ee565b92915050565b6000806040838503121561013157610130610081565b5b600061013f858286016100a7565b925050602061015085828601610105565b9150509250929050565b61044b806101696000396000f3fe60806040526004361061003f5760003560e01c80636d1b229d1461004457806371ca337d1461006d5780639d76ea5814610098578063d0febe4c146100c3575b600080fd5b34801561005057600080fd5b5061006b60048036038101906100669190610269565b6100cd565b005b34801561007957600080fd5b5061008261015f565b60405161008f91906102a5565b60405180910390f35b3480156100a457600080fd5b506100ad610165565b6040516100ba919061033f565b60405180910390f35b6100cb61018b565b005b600160009054906101000a900473ffffffffffffffffffffffffffffffffffffffff1673ffffffffffffffffffffffffffffffffffffffff166379cc679033836040518363ffffffff1660e01b815260040161012a92919061037b565b600060405180830381600087803b15801561014457600080fd5b505af1158015610158573d6000803e3d6000fd5b5050505050565b60005481565b600160009054906101000a900473ffffffffffffffffffffffffffffffffffffffff1681565b600080543461019a91906103d3565b9050600160009054906101000a900473ffffffffffffffffffffffffffffffffffffffff1673ffffffffffffffffffffffffffffffffffffffff166340c10f1933836040518363ffffffff1660e01b81526004016101f992919061037b565b600060405180830381600087803b15801561021357600080fd5b505af1158015610227573d6000803e3d6000fd5b5050505050565b600080fd5b6000819050919050565b61024681610233565b811461025157600080fd5b50565b6000813590506102638161023d565b92915050565b60006020828403121561027f5761027e61022e565b5b600061028d84828501610254565b91505092915050565b61029f81610233565b82525050565b60006020820190506102ba6000830184610296565b92915050565b600073ffffffffffffffffffffffffffffffffffffffff82169050919050565b6000819050919050565b60006103056103006102fb846102c0565b6102e0565b6102c0565b9050919050565b6000610317826102ea565b9050919050565b60006103298261030c565b9050919050565b6103398161031e565b82525050565b60006020820190506103546000830184610330565b92915050565b6000610365826102c0565b9050919050565b6103758161035a565b82525050565b6000604082019050610390600083018561036c565b61039d6020830184610296565b9392505050565b7f4e487b7100000000000000000000000000000000000000000000000000000000600052601160045260246000fd5b60006103de82610233565b91506103e983610233565b92508282026103f781610233565b9150828204841483151761040e5761040d6103a4565b5b509291505056fea26469706673582212207ba19482657e923ea7c8ad23fb0fc8658bcecaef9c13d6cb41b3fe0624d771d964736f6c63430008110033",
  "linkReferences": {},
  "deployedLinkReferences": {}
}